:100000000C9464000C948C000C948C000C944609A5
:100010000C9446090C9446090C948C000C9422080C
:100020000C948C000C948C000C948C000C94BE09E5
:100030000C948C000C948C000C948C000C948C0010
:100040000C94FC080C948C000C94CA080C94A40822
:100050000C948C000C948C000C948C000C948C00F0
:100060000C948C000C948C000000000024002700ED
:100070002A0000000008000201000003040700003D
:1000800000000000000002000000002300260029FC
:100090000000000000250028002B000404040404D4
:1000A0000404040202020202020303030303030125
:1000B00002040810204080010204081020010204FC
:1000C000081020007A0A221211241FBECFEFD8E0B8
:1000D000DEBFCDBF12E0A0E0B1E0E2E3FFE202C08C
:1000E00005900D92A431B107D9F723E0A4E1B2E065
:1000F00001C01D92AC3EB207E1F710E0C3E6D0E0CC
:1001000004C02197FE010E947915C236D107C9F7B4
:100110000E94310C0C948C170C940000E3E7F2E081
:10012000A089B18982E08C93A485B5851C92A685AF
:10013000B7858FEC8C93108EA489B58986E08C935B
:10014000A289B3898C9180618C93A289B3898C91A7
:1001500088608C93A289B3898C9180688C93028883
:10016000F389E02D80818F7D808308950F931F9305
:10017000CF93DF93C0919103E2E9F3E0CD3211F028
:10018000E1E9F3E08F0120E030E0A901D801DD9141
:100190008D0180ED8D0F8A3090F4AAE0B0E00E94CE
:1001A000AF132D2FDD0F330B440B550B260F371FCD
:1001B000481F591F2053310941095109E7CFA4E6CF
:1001C000B0E00E94AF13AB01BC01DF01819190ED63
:1001D000980F9A30D0F38E3259F511968C91119771
:1001E00090ED980F9A3020F5082E000C990BC097CF
:1001F0002AE0289F8001299F100D1124012E000C58
:10020000220B330B400F511F621F731F12968C91EC
:1002100090ED980F9A3060F4082E000C990BC0975F
:10022000092E000CAA0BBB0B480F591F6A1F7B1F1E
:10023000CD3239F470956095509541955F4F6F4F71
:100240007F4FCB01BA01DF91CF911F910F9108959C
:100250004F925F926F927F928F929F92AF92BF92D6
:10026000CF92DF92EF92FF921F93CF93DF93C1E97A
:10027000D3E0FE01C12CD12C7601119180ED810FCC
:100280008A30A8F4AAE0B0E0A70196010E94AF135B
:10029000C12E110FDD08EE08FF08C60ED71EE81E9E
:1002A000F91E80E3C81AD108E108F108E6CFC701BA
:1002B000B60124E630E040E050E00E94F9139B01D3
:1002C000AC0160EA76E881E090E00E9449154B01BC
:1002D0005C019E01899190ED980F9A30D0F38E3297
:1002E00021F5E901219680E1482E87E2582E612C04
:1002F000712CA99180ED8A0F8A30B8F40A2E000C77
:10030000BB0BD097A30192010E94BA13860E971ED1
:10031000A81EB91EC301B2012AE030E040E050E05F
:100320000E94F91329013A01E4CFC701B60124E67E
:1003300030E040E050E00E94F91360E472E48FE0A6
:1003400090E00E9449156B017C01C501B4016D5F0D
:100350007F4F8F4F9F4F26E030E040E050E00E94FB
:10036000F913C701B601620F731F841F951FDF9138
:10037000CF911F91FF90EF90DF90CF90BF90AF9003
:100380009F908F907F906F905F904F900895AF9265
:10039000BF92CF92DF92EF92FF920F931F93CF9372
:1003A000DF936C017B018B01040F151FEB015E01D4
:1003B000AE18BF08C017D10759F06991D601ED9169
:1003C000FC910190F081E02DC6010995892B79F708
:1003D000C501DF91CF911F910F91FF90EF90DF90BA
:1003E000CF90BF90AF900895FC01538D448D252F81
:1003F00030E0842F90E0821B930B541710F0CF96BF
:10040000089501970895FC01918D828D981761F0F0
:10041000A28DAE0FBF2FB11D5D968C91928D9F5F07
:100420009F73928F90E008958FEF9FEF0895FC01E6
:10043000918D828D981731F0828DE80FF11D858D99
:1004400090E008958FEF9FEF0895FC01918D228D2C
:10045000892F90E0805C9F4F821B91098F739927B1
:10046000089583E792E00E94250221E0892B09F498
:1004700020E0822F089580E090E0892B29F00E94EF
:10048000310281110C9400000895FC01A48DA80F85
:10049000B92FB11DA35ABF4F2C91848D90E00196C6
:1004A0008F739927848FA689B7892C93A089B189E6
:1004B0008C91837080648C93938D848D981306C087
:1004C0000288F389E02D80818F7D80830895EF92EB
:1004D000FF920F931F93CF93DF93EC0181E0888FFE
:1004E0009B8D8C8D98131AC0E889F989808185FFCE
:1004F00015C09FB7F894EE89FF896083E889F98970
:1005000080818370806480839FBF81E090E0DF9171
:10051000CF911F910F91FF90EF900895F62E0B8DC4
:1005200010E00F5F1F4F0F731127E02E8C8D8E117F
:100530000CC00FB607FCFACFE889F989808185FFE6
:10054000F5CFCE010E944502F1CFEB8DEC0FFD2FD0
:10055000F11DE35AFF4FF0829FB7F8940B8FEA89A1
:10056000FB8980818062CFCFCF93DF93EC01888DB0
:100570008823B9F0AA89BB89E889F9898C9185FD1E
:1005800003C0808186FD0DC00FB607FCF7CF8C91AC
:1005900085FFF2CF808185FFEDCFCE010E9445021D
:1005A000E9CFDF91CF91089590E0FC01EE58FF4F25
:1005B0002491FC01E155FF4F3491FC01E556FF4FBA
:1005C000E491EE23C9F0222339F0233001F1A8F49D
:1005D000213019F1223029F1F0E0EE0FFF1FEF5624
:1005E000FF4FA591B4918FB7F894EC91611126C09B
:1005F00030953E233C938FBF08952730A9F02830D3
:10060000C9F0243049F7809180008F7D03C080912C
:1006100080008F7780938000DFCF84B58F7784BD93
:10062000DBCF84B58F7DFBCF8091B0008F77809337
:10063000B000D2CF8091B0008F7DF9CF3E2BDACFC2
:10064000CF93DF9390E0FC01E155FF4F2491855655
:100650009F4FFC0184918823D1F090E0880F991F6F
:10066000FC01E859FF4FA591B491FC01EF56FF4FF3
:10067000C591D49161110EC09FB7F8948C91E22F6F
:10068000E0958E238C932881E223E8839FBFDF913E
:10069000CF9108958FB7F894EC91E22BEC938FBF34
:1006A000F6CF8F929F92AF92BF92CF92DF92EF924E
:1006B000FF920F931F93CF938B0169017A01909161
:1006C0000001891779F09F3F09F44EC0CF911F9127
:1006D0000F91FF90EF90DF90CF90BF90AF909F90E1
:1006E0008F900895E6E8F0E0C491C7FDEFCF61E098
:1006F0000E942003C1114CC0980150E040E068E422
:1007000078EE81E090E00E94901349015A0181E067
:10071000881A9108A108B10885B5887F836085BDD6
:10072000D801AA0FBB1FA70196010E94AF1328EEA4
:1007300033E040E050E00E94F913C13009F4BEC03C
:10074000C23009F4CDC0C111C1CF87BC209368026B
:100750003093690240936A0250936B0280916E005D
:10076000826080936E00B2CF80930001E6E8F0E0F3
:10077000C491CF3F09F4AACFC13009F440C010F1B1
:10078000C23009F45EC0C7FDA1CF61E00E94200322
:10079000980150E040E0C23009F079C060E970EDA6
:1007A00083E090E00E94901349015A0181E0881A89
:1007B0009108A108B1088091B100887F836080937F
:1007C000B100AECF14BC15BC94B5926094BD95B584
:1007D000916095BD282F30E0F901E556FF4FE49177
:1007E000F0E0EE0FFF1FEF56FF4F45915491F901D6
:1007F000E155FF4FE491E0936302C0E078CF10929F
:100800008000109281009091810098609093810007
:1008100090918100916090938100282F30E0F90140
:10082000E556FF4FE491F0E0EE0FFF1FEF56FF4F4C
:1008300045915491F901E155FF4FE491E093620233
:1008400056CF1092B0001092B1009091B00092601B
:100850009093B0009091B10091609093B100282FD7
:1008600030E0F901E556FF4FE491F0E0EE0FFF1F95
:10087000EF56FF4F4591549150936D0240936C0297
:10088000F901E155FF4FE491E0936E0230CF60E053
:1008900072E18AE790E00E94901349015A0181E0D9
:1008A000881A9108A108B108C13009F039CF8091A8
:1008B0008100887F81608093810032CF909289008F
:1008C0008092880020936402309365024093660210
:1008D0005093670280916F00826080936F00F6CE24
:1008E0008092B30020936F023093700240937102A4
:1008F0005093720280917000826080937000E6CE07
:100900008E3008F08E508770806480937C008091D8
:100910007A00806480937A0080917A0086FDFCCF13
:10092000809178009091790008953FB7F894809174
:100930005E0290915F02A0916002B091610226B5C3
:10094000A89B05C02F3F19F00196A11DB11D3FBF07
:10095000BA2FA92F982F8827BC01CD01620F711DD6
:10096000811D911D42E0660F771F881F991F4A95D0
:10097000D1F708958F929F92AF92BF92CF92DF925C
:10098000EF92FF924B015C010E9495046B017C0188
:100990000E9495046C197D098E099F09683E734079
:1009A00081059105A8F321E0821A9108A108B108F8
:1009B00088EEC80E83E0D81EE11CF11C811491045E
:1009C000A104B10429F7FF90EF90DF90CF90BF9082
:1009D000AF909F908F9008952FB7F89460915A022E
:1009E00070915B0280915C0290915D022FBF08952F
:1009F00020915702309158022817390771F49091CD
:100A0000560280915502981741F0E0915602F0E0AD
:100A1000EB5EFD4F808190E008958FEF9FEF08958A
:100A20000895EF92FF920F931F93CF93DF93DC0112
:100A30005C96ED90FC905D97E114F10479F481E00F
:100A400090E013969C938E93129790E080E0DF9154
:100A5000CF911F910F91FF90EF9008955196ED91D6
:100A6000FC91529750968C915097982F90950FB774
:100A70005E962C915E97122F127021FD6095F8946E
:100A80002081112319F1282B2083E7012197F1F709
:100A900028E0462F50E0308160FF1AC0382B3083A9
:100AA000E7012197F1F7BA0175956795215089F70C
:100AB000112381F08081892380830FBF5C968D9103
:100AC0009C910197F1F781E090E0C1CF2923DCCF21
:100AD0003923E5CF9081892BEFCF209157023091B8
:100AE00058022817390771F4809155022091560257
:100AF00090E0805C9F4F821B910960E470E00E944F
:100B00006515089590E080E0089520915702309196
:100B1000580228173907B9F490915602809155026E
:100B2000981789F0E0915602F0E0EB5EFD4F80816E
:100B30002091560230E02F5F3F4F2F7333272093D1
:100B4000560290E008958FEF9FEF0895089590E08A
:100B500080E00895CF93DF93EC0160E08E810E94E6
:100B6000D40261E08E810E94D40260E08E810E94F6
:100B7000D4028BE891E00197F1F7DF91CF910895CE
:100B8000CF92DF92EF92FF920F931F93CF93DF9359
:100B90006C017C0187E0E80EF11CD0E0C0E0062F7C
:100BA00010E0B8010C2E02C0759567950A94E2F723
:100BB0006170F70181917F010E94D4022196C430B7
:100BC000D10579F7C601DF91CF911F910F91FF9069
:100BD000EF90DF90CF900C94AA05CF92DF92EF9226
:100BE000FF920F931F93CF93DF93EC01F62E642FA8
:100BF0008C810E94D4028D818F3F19F060E00E94A9
:100C0000D4020F2D10E08F8584FF25C06E0187E090
:100C1000C80ED11CF12CE12CB8010E2C02C0759528
:100C200067950A94E2F76170F60181916F010E9465
:100C3000D402FFEFEF1AFF0A88E0E816F10461F72B
:100C4000CE01DF91CF911F910F91FF90EF90DF9038
:100C5000CF900C94AA05B80184E0759567958A95A4
:100C6000E1F7CE010E94C0056F2DCE01DF91CF913B
:100C70001F910F91FF90EF90DF90CF900C94C005E3
:100C800040E0682F8DEC93E00C94ED0581E00E942C
:100C900040068BE39FE10197F1F70895CF93DF932F
:100CA000623029F49091DC0398609093DC036093A8
:100CB000E0031092E10390E49093E2038093E30356
:100CC000805C8093E40361E08091D1030E94200363
:100CD0008091D2038F3F19F061E00E94200361E010
:100CE0008091D3030E942003CDECD3E09E012D5CC4
:100CF00033408091DC0384FD0BC084E090E02196BA
:100D00002817390744F461E08E810E942003EECF5A
:100D100088E090E0F4CF8BE39DE00197F1F760E08D
:100D20008091D1030E94D40260E08091D3030E949D
:100D3000D4028091D2038F3F19F060E00E94D40268
:100D40008091DC0384FD34C063E08DEC93E00E946D
:100D5000C005CBE4D6E4CE010197F1F763E08DEC5A
:100D600093E00E94C0052197F1F763E08DEC93E0DA
:100D70000E94C00583E592E00197F1F762E08DECF7
:100D800093E00E94C0058091DC0380620E944006CF
:100D900084E08093DD038CE00E9440060E944606BA
:100DA00082E08093DE0386E0DF91CF910C944006D1
:100DB00080620E9440068BE496E40197F1F78091EF
:100DC000DC0380620E94400683E592E00197F1F720
:100DD0008091DC0380620E944006D5CF9091E003B1
:100DE000891710F08FEF890FE82FF0E0E353FC4FE5
:100DF000848980680C94400641E00E94ED0581E002
:100E000090E00895FB0101900020E9F73197AF01D0
:100E1000461B570BDC01ED91FC910280F381E02D24
:100E200009948F929F92AF92BF920F931F93CF938B
:100E3000DF93CDB7DEB7A1970FB6F894DEBF0FBE34
:100E4000CDBF19A2423008F44AE08E010F5D1F4F5A
:100E5000842E912CB12CA12CA50194010E94F91390
:100E6000E62FB901CA01EA3004F5E05DD801EE933E
:100E70008D01232B242B252B79F790E080E0109710
:100E800029F0BD0183E792E00E940207A1960FB608
:100E9000F894DEBF0FBECDBFDF91CF911F910F91B0
:100EA000BF90AF909F908F900895E95CDFCF4F92F5
:100EB0005F926F927F928F929F92AF92BF92CF92EA
:100EC000DF92EF92FF92CF936B017C01AC019B010B
:100ED0000E94441567E371E0811126C04601570165
:100EE000E894B7F82FEF3FEF4FE75FE7C501B40194
:100EF0000E94441581110CC02FEF3FEF4FE75FE7D1
:100F0000C501B4010E946C126BE371E0181664F025
:100F10002FEF3FEF4FE75FE4C701B6010E943F1597
:100F200018169CF46FE371E083E792E0CF91FF9095
:100F3000EF90DF90CF90BF90AF909F908F907F9079
:100F40006F905F904F900C9402072FEF3FEF4FE7A9
:100F50005FECC701B6010E946C1287FDE3CF20E071
:100F600030E0A901C701B6010E946C12B12CA12C7E
:100F700087FF0AC06DE283E792E00E9467025C018E
:100F8000F7FAF094F7F8F0942CEB37E346E055E3EA
:100F9000C701B6010E942B142B013C010E941015C1
:100FA0006B017C010E9471129B01AC01C301B20173
:100FB0000E942A142B013C014AE0C701B6010E949D
:100FC00011077C01EA0CFB1C6EE283E792E00E94B1
:100FD0006702E80EF91EC7E0C15019F120E030E0C9
:100FE00040E251E4C301B2010E94D2122B013C0144
:100FF0000E9410154B01B12CA12C4AE0C501B4018F
:101000000E941107E80EF91EC501B4010E94711279
:101010009B01AC01C301B2010E942A142B013C01C7
:10102000DBCFC701CF91FF90EF90DF90CF90BF90C3
:10103000AF909F908F907F906F905F904F900895AA
:101040000C9402071F920F920FB60F9211242F9348
:101050003F934F935F936F937F938F939F93AF9340
:10106000BF93EF93FF9380916F0290917002A091D4
:101070007102B0917202892B8A2B8B2BD1F1909146
:101080006E02E0916C02F0916D028081892780836D
:1010900080916F0290917002A0917102B0917202E2
:1010A000181619061A061B069CF480916F0290917F
:1010B0007002A0917102B09172020197A109B10969
:1010C00080936F0290937002A0937102B0937202AA
:1010D000FF91EF91BF91AF919F918F917F916F9110
:1010E0005F914F913F912F910F900FBE0F901F90E6
:1010F000189580910001E6E8F0E0E4919FEF90936D
:101100000001E13051F030F0E23069F060E00E941F
:10111000D402DECF10926E00F9CF90916F009D7FC8
:1011200090936F00F3CF909170009D7F909370002B
:1011300091E09093B0009091B100987F946090936B
:10114000B1001092B300E2CF1F920F920FB60F9230
:1011500011242F933F934F935F936F937F938F93BC
:101160009F93AF93BF93EF93FF9383E792E00E9427
:101170004502FF91EF91BF91AF919F918F917F9128
:101180006F915F914F913F912F910F900FBE0F90F4
:101190001F9018951F920F920FB60F9211242F9344
:1011A0008F939F93EF93FF93E0918302F0918402DA
:1011B0008081E0918902F0918A0282FD1BC09081BA
:1011C00080918C028F5F8F7320918D02821741F086
:1011D000E0918C02F0E0ED58FD4F958F80938C02EA
:1011E000FF91EF919F918F912F910F900FBE0F90D4
:1011F0001F9018958081F4CF1F920F920FB60F9217
:1012000011242F933F938F939F93AF93BF9380911C
:101210005A0290915B02A0915C02B0915D02309104
:10122000590223E0230F2D3758F50196A11DB11D5A
:101230002093590280935A0290935B02A0935C0220
:10124000B0935D0280915E0290915F02A091600276
:10125000B09161020196A11DB11D80935E02909331
:101260005F02A0936002B0936102BF91AF919F9122
:101270008F913F912F910F900FBE0F901F90189557
:1012800026E8230F0296A11DB11DD2CF1F920F9207
:101290000FB60F9211242F933F934F935F936F9349
:1012A0007F938F939F93AF93BF93EF93FF93E091BF
:1012B0005702F0915802309749F0A685B785858589
:1012C000968D91FF14C09C918923A1F4FF91EF9119
:1012D000BF91AF919F918F917F916F915F914F914E
:1012E0003F912F910F900FBE0F901F9018959C91DA
:1012F000892361F7A389B4899C9185898095892385
:101300008C93868997890197F1F7608D718DA685F9
:10131000B785558538E020E0CB010197F1F7822FA2
:1013200090E095958795282F4C91452309F02068EA
:10133000315091F7868D81FD20958091550290E086
:1013400001968F73992730915602381799F0A09122
:101350005502B0E0AB5EBD4F2C9380935502828D59
:10136000938D0197F1F7A389B4898C919589892B85
:101370008C93ACCF868D8160868FF1CF1F920F92B8
:101380000FB60F9211242F933F934F935F936F9358
:101390007F938F939F93AF93BF93CF93DF93EF93FD
:1013A000FF9380911402C0913403D0E087FF24C0E2
:1013B0001092850010928400809114028F5F8093B8
:1013C000140280911402082E000C990B8C179D07B3
:1013D00024F4809114028C30C4F1809184009091A7
:1013E0008500049680349C4908F47AC0809184007A
:1013F00090918500049676C080911402082E000C0E
:10140000990B8C179D07C4F6E09114028E2FEE0FF6
:10141000990BFC01EE0FFF1FE80FF91FE05FFC4F77
:10142000808186FFC9CFE09114028E2FEE0F990BB9
:10143000FC01EE0FFF1FE80FF91FE05FFC4F8081FA
:1014400060E08F730E94D402B7CF20918400309166
:101450008500E09114028E2FEE0F990BFC01EE0F28
:10146000FF1FE80FF91FE05FFC4F81819281820F1F
:10147000931F9093890080938800E09114028E2F2F
:10148000EE0F990BFC01EE0FFF1FE80FF91FE05F55
:10149000FC4F808186FF11C0E09114028E2FEE0F69
:1014A000990BFC01EE0FFF1FE80FF91FE05FFC4FE7
:1014B000808161E08F730E94D402FF91EF91DF91F0
:1014C000CF91BF91AF919F918F917F916F915F91DC
:1014D0004F913F912F910F900FBE0F901F90189535
:1014E00080E49CE990938900809388008FEF80933B
:1014F0001402E3CF109276021092750288EE93E008
:10150000A0E0B0E08093770290937802A0937902F4
:10151000B0937A028BE091E090937402809373020F
:1015200085EC90E09093800280937F0284EC90E0C1
:10153000909382028093810280EC90E090938402E9
:101540008093830281EC90E09093860280938502E1
:1015500082EC90E0909388028093870286EC90E082
:1015600090938A028093890210928C0210928D02CD
:1015700010928E0210928F02809134038C3008F00A
:1015800057C191E0980F909334038093E50390E066
:10159000FC01EE0FFF1FE80FF91FE05FFC4F88EB27
:1015A0009BE0928381831092D0031092CF038FE24D
:1015B00091E09093CE038093CD038CE08093D10390
:1015C0008FEF8093D2038BE08093D30385E08093E9
:1015D000D40384E08093D50383E08093D60382E034
:1015E0008093D7031092D8031092D9031092DA0394
:1015F0001092DB031092DC0361E080E10E944E0652
:101600001092B1031092B00388EE93E0A0E0B0E036
:101610008093B2039093B303A093B403B093B50344
:101620008DE191E09093AF038093AE031092C503D8
:101630001092C4031092C7031092C6031092C903FC
:101640001092C8031092CB031092CA036091CC038E
:101650006E7F6D7F6093CC036695617081E0682733
:101660008AE00E94D40261E08AE00E942003E9EB54
:10167000F0E0E491E093BE03E5EAF0E0E491F0E00D
:10168000EE0FFF1FEF56FF4F859194919093C0038B
:101690008093BF0360E089E00E9420038091CC0327
:1016A00081FD04C061E089E00E94D40289E080935A
:1016B000BA03E8EBF0E0E491E093BB03E4EAF0E086
:1016C000E491F0E0EE0FFF1FE957FF4F85919491F1
:1016D0009093BD038093BC034FEF5FEFBA0140933B
:1016E0003B0350933C0360933D0370933E03109281
:1016F00043031092440310924503109246038FEF68
:1017000099ECAAE9BBE380934B0390934C03A0931D
:101710004D03B0934E038093530390935403A093CF
:101720005503B093560380935B0390935C03A0939F
:101730005D03B0935E038093630390936403A0936F
:101740006503B093660380936B0390936C03A0933F
:101750006D03B0936E0340937303509374036093CF
:101760007503709376038FEF90E090937C038093E2
:101770007B0340937F0350938003609381037093B6
:101780008203409387035093880360938903709387
:101790008A0310928F031092900382E08093A0033B
:1017A0001092A1031092A2031092A3031092A4031B
:1017B0001092A5031092A6031092A7031092A903FA
:1017C0001092A8031092AB031092AA0310929103F7
:1017D000109236031092350310923803109237039B
:1017E00010923A031092390361E070E090E080E0DB
:1017F0000E94BF16009701F1909336038093350342
:1018000010923803109237032091390330913A0334
:10181000232B11F4FC01108210923A031092390329
:1018200062E072E080913503909136030C94851745
:101830008FEF8093E503B7CE809135039091360307
:10184000009711F00E94361610923603109235035D
:1018500010923A0310923903109238031092370312
:101860000895789484B5826084BD84B5816084BD18
:1018700085B5826085BD85B5816085BD80916E002E
:10188000816080936E00109281008091810082605F
:10189000809381008091810081608093810080919C
:1018A00080008160809380008091B100846080938B
:1018B000B1008091B00081608093B00080917A0087
:1018C000846080937A0080917A00826080937A00AD
:1018D00080917A00816080937A0080917A0080689C
:1018E00080937A001092C10061E088E00E9420039A
:1018F00061E081E00E94200361E087E00E94200314
:101900008091E5038C3008F051C061E08DE00E94C9
:1019100020038091E503282F30E0F901EE0FFF1F2F
:10192000E20FF31FE05FFC4F9081907C9D609083FD
:101930001092E6031092E7032CE0622F0E945915E3
:10194000829FB001112430E020E0AB01420F531F11
:10195000FA01EE0FFF1FE40FF51FE05FFC4F9081CF
:1019600096FD16C02F5F3F4F2C30310571F7811166
:101970000FC01092800082E0809381001092850059
:1019800010928400B19A80916F00826080936F0002
:10199000E091E5038E2F90E0FC01EE0FFF1FE80FB2
:1019A000F91FE05FFC4F80818064808361E086E006
:1019B0000E94200362E08EE00E944E0664E670E022
:1019C00080E090E00E94BA0460E08EE00E94200374
:1019D00060E08FE00E94200361E086E00E94200327
:1019E00061E087E00E94200361E08AE00E9420031A
:1019F00060E087E00E94D40260E08AE00E94D402A6
:101A00000E948E000E948E00C8E82C2E312CD4EB50
:101A10004D2E512C612C712CC2E008E512E08EE0B5
:101A20000E9480048FE00E9480048EE00E94800467
:101A3000BC01990F880B990B0E94731220E030E0D3
:101A400040EA50E40E94D21220E030E048EC52E438
:101A50000E94D21220E030E040E85AE30E94D21205
:101A60000E9409154B018FE00E94800462E370E040
:101A700080E090E00E94BA040E94EC046B017C01BB
:101A80000E94EC046C197D098E099F09683E734021
:101A90008105910508F0D1C283E792E00E942502FA
:101AA000892B71F383E792E00E940302D82F809183
:101AB000A4039091A503A091A603B091A70301965A
:101AC000A11DB11D8093A4039093A503A093A60329
:101AD000B093A703D43209F48FC2E091A203D532A8
:101AE0000CF0D7C0DA3019F0DD3009F092C2EF30D7
:101AF00008F0C1C09091A103F0E0EF56FC4F1082B6
:101B000080919003882309F444C120919103822F8E
:101B1000022E000C990B3FEB320F363008F0C5C097
:101B2000C7978295807F90919203292F092E000CF0
:101B3000330B4FEB490F463008F0BFC02753310934
:101B4000280F80918F0328131AC18091A303882343
:101B500009F491C08091A8039091A90301969093F4
:101B6000A9038093A8038091830390918403A0919B
:101B70008503B091860380937F0390938003A093A5
:101B80008103B093820380918B0390918C03A09189
:101B90008D03B0918E038093870390938803A09365
:101BA0008903B0938A038091A003882309F48EC02F
:101BB000813009F060C080913F0390914003A09173
:101BC0004103B091420380933B0390933C03A09365
:101BD0003D03B0933E038091470390914803A09149
:101BE0004903B0914A038093430390934403A09325
:101BF0004503B093460380914F0390915003A09109
:101C00005103B091520380934B0390934C03A093E4
:101C10004D03B0934E038091570390915803A091C8
:101C20005903B0915A038093530390935403A093A4
:101C30005503B09356038091670390916803A09178
:101C40006903B0916A038093630390936403A09344
:101C50006503B093660380916F0390917003A09128
:101C60007103B091720380936B0390936C03A09304
:101C70006D03B0936E038091A1038F5F8093A103E6
:101C80001092A20381E0DA3209F080E080939003A1
:101C900003CFDA3209F42BCFDC3209F0BAC18091DC
:101CA0008F038D2780938F0322CF2156263018F47F
:101CB0008755910936CFC09734CF9156963018F496
:101CC000275531093DCF205331093ACF80915F0329
:101CD00090916003A0916103B091620380935B03D4
:101CE00090935C03A0935D03B0935E0380913F03E8
:101CF00090914003A0914103B091420380933B0334
:101D000090933C03A0933D03B0933E0380914F0317
:101D100090915003A0915103B091520380934B03D3
:101D200090934C03A0934D03B0934E0380915703BF
:101D300090915803A0915903B0915A038093530393
:101D400090935403A0935503B093560380917D0361
:101D500090917E0390937C0380937B038091770323
:101D600090917803A0917903B0917A0380937303E3
:101D700090937403A0937503B09376037CCF809106
:101D8000AA039091AB0301969093AB038093AA03AF
:101D900072CF91111CC041E953E0A3E4B1E0CA0144
:101DA000FC012191CF01222309F445C33D91231762
:101DB000B9F3A9E4B1E0FA018191AF01882309F4F4
:101DC0003EC39D918917B9F3C093A00354CFE0910E
:101DD000A003E23009F44FCF80919103882309F4E6
:101DE0004ACF20E2E29FF0011124E92B3197E9323A
:101DF000F10508F040CFE150F14F0C947915450FF3
:101E0000600F750F900F9B0FD50FDC0FE60FF10FD2
:101E10003B0E3B0E3B0E3B0E3B0E3B0E3B0E3B0E7A
:101E20003B0E3B0E3B0E3B0E3B0E3B0E3B0E3B0E6A
:101E30003B0E3B0E3B0E3B0E3B0E3B0E3B0E450F4F
:101E40005A0F600F750F900F9B0FB60FC10F280F21
:101E5000E1E9F3E020E030E0A901B19080ED8B0DE5
:101E60008A3008F099C0AAE0B0E00E94AF132B2D91
:101E7000BB0C330B440B550B260F371F481F591F44
:101E80002053310941095109E8CF0E94B6006093FF
:101E90003F037093400380934103909342030E9459
:101EA000EC04609383037093840380938503909381
:101EB0008603E1CE91E0813409F47BC090E079C0E3
:101EC0000E94280160934F03709350038093510345
:101ED000909352030E94EC0460938B0370938C03E5
:101EE00080938D0390938E03C6CE833509F0C3CEC5
:101EF00080914F0390915003A0915103B0915203F0
:101F0000B095A095909581959F4FAF4FBF4F80930F
:101F10004F0390935003A0935103B0935203ABCE61
:101F20000E942801609357037093580380935903CC
:101F300090935A03A0CE873509F09DCE8091570328
:101F400090915803A0915903B0915A03B095A09570
:101F5000909581959F4FAF4FBF4F809357039093BC
:101F60005803A0935903B0935A0385CE0E94B6003C
:101F700060936703709368038093690390936A0387
:101F80007ACE0E94B60060936F03709370038093C3
:101F90007103909372036FCE2093470330934803ED
:101FA0004093490350934A0366CE91E081330CF489
:101FB00085CF9093A3035FCE81E993E00E94461200
:101FC000992790937E0380937D0355CE0E94B6009F
:101FD00060937703709378038093790390937A03E7
:101FE0004ACE0E94B60060935F03709360038093B3
:101FF0006103909362033FCE1092A2031092A1035B
:1020000010928F03C093A003109290031092A30329
:1020100043CDEE3040F481E08E0F8093A203F0E0D8
:10202000EF56FC4FD08380919003811135CD809184
:102030008F03D827D0938F032FCD42E384169104CA
:102040000CF4CEC161E087E00E94D40280E00E94DF
:10205000800424EB30E0DC010E947F152FEF33E099
:1020600040E050E00E949013C9016901803252E0C3
:102070009507BCF52091E6036101C21AD10827FD3E
:10208000D394CC0CDD1CCC0CDD1C0D2C000CEE080C
:10209000FF082091E703F801E21BF10927FDF39502
:1020A0009F01220F331F220F331F032E000C440BFE
:1020B000550B2C193D094E095F09DC01853B910543
:1020C00014F0A4EBB0E0B7FF02C0B0E0A0E00E94C3
:1020D000BA13A30192010E949013C20ED31EE41EF4
:1020E000F51E2091E5032C3080F58091E603A101D7
:1020F000481B510987FD5395CA01880F991F880F06
:10210000991FC816D90684F08091E703F801E81BEF
:10211000F10987FDF395CF01880F991F880F991F4B
:10212000C816D9060CF4C6010297880F991F6FB71D
:10213000F89430E0A901440F551F240F351FF90111
:10214000E05FFC4F928381836FBF62E370E080E0C9
:1021500090E00E94BA0461E088E00E94D40261E04D
:1021600087E00E94D40261E08AE00E94D4020E94CB
:10217000460680E00E94EE066FE471E08DEC93E08D
:102180000E94200881E00E94EE0667E571E08DEC78
:1021900093E00E94200864E670E080E090E00E94F6
:1021A000BA040E94460660E671E08DEC93E00E945E
:1021B000200864E670E080E090E00E94BA0424EF1A
:1021C00031E040E050E067E174E086E00E945103B6
:1021D00068EC70E080E090E00E94BA042CE231E00C
:1021E00040E050E065E574E086E00E94510368EC51
:1021F00070E080E090E00E94BA0424E630E040E025
:1022000050E067E974E086E00E94510365E070E009
:1022100080E090E00E94BA0480904B0390904C03C1
:10222000A0904D03B0904E03C0905303D090540340
:10223000E0905503F09056038091870390918803B6
:10224000A0918903B0918A038F3F9F4FAF4FBF4F3B
:1022500011F00E94EC042FEF821629EC92062AE975
:10226000A2062BE3B20609F4B2C0C501B4010E9474
:10227000731220E034E244E759E40E9497144B01C2
:102280005C01C701B6010E94731220E034E244E70A
:1022900059E40E9497146B017C016FE671E083E7BB
:1022A00092E00E94200864E670E080E090E00E94E6
:1022B000BA046AE771E083E792E00E94200863E9CC
:1022C00071E083E792E00E94200864E670E080E01D
:1022D00090E00E94BA0462EA71E083E792E00E9413
:1022E000200863E971E083E792E00E94200864E639
:1022F00070E080E090E00E94BA046BEB71E083E74D
:1023000092E00E94200864ED71E083E792E00E9471
:10231000200868EC70E080E090E00E94BA0466EE6D
:1023200071E083E792E00E94200820E030E04AE775
:1023300054E4C501B4010E946C12811103C0812CC8
:10234000912C5401C501B4010E94570762EF71E05E
:1023500083E792E00E94200820E030E04AE754E45E
:10236000C701B6010E946C12811103C0C12CD12C8F
:102370007601C701B6010E94570768EC70E080E063
:1023800090E00E94BA046AE183E792E00E9467024B
:1023900060E072E083E792E00E94020768EC70E080
:1023A00080E090E00E94BA0460E072E083E792E08F
:1023B0000E94020780E090E0892B09F430CB0E9454
:1023C0003102882309F429CB0E94000026CB812CFE
:1023D000912C8AE7A82E84E4B82E750164015DCFA4
:1023E00060E087E00E94D40262E370E080E090E069
:1023F0000E94BA0460E087E00E94D40260E08AE0B4
:102400000E94D40260E088E00E94D4020E94460646
:1024100080E00E94EE0663E072E08DEC93E00E94A3
:10242000200881E00E94EE066BE072E08DEC93E004
:102430000E942008BFCF41E04093A0031CCC109223
:10244000A00319CC8091350390913603009711F0C9
:102450000E9436168DE191E09093AF038093AE0316
:1024600080915702909158028E5A934071F4E091F6
:10247000C103F091C20390818091C30380958923A9
:10248000808310925802109257020895FC01882709
:102490009927E89421912032E9F3293010F02E3069
:1024A000C8F32B3241F02D3239F4689404C00E94F5
:1024B0006412820F911D219120532A30C0F31EF423
:1024C000909581959F4F08957AE0979F902D879FD3
:1024D000802D910D112408950E94AE1208F481E020
:1024E0000895E89409C097FB3EF490958095709507
:1024F00061957F4F8F4F9F4F9923A9F0F92F96E950
:10250000BB279395F695879577956795B795F111C4
:10251000F8CFFAF4BB0F11F460FF1BC06F5F7F4F61
:102520008F4F9F4F16C0882311F096E911C0772373
:1025300021F09EE8872F762F05C0662371F096E87C
:10254000862F70E060E02AF09A95660F771F881F4B
:10255000DAF7880F9695879597F90895990F0008EF
:10256000550FAA0BE0E8FEEF16161706E807F90765
:10257000C0F012161306E407F50798F0621B730B00
:10258000840B950B39F40A2661F0232B242B252B81
:1025900021F408950A2609F4A140A6958FEF811D24
:1025A000811D08950E94E5120C9456130E94481351
:1025B00038F00E944F1320F0952311F00C943F1334
:1025C0000C94451311240C948A130E94671370F322
:1025D000959FC1F3950F50E0551F629FF001729FC8
:1025E000BB27F00DB11D639FAA27F00DB11DAA1FD7
:1025F000649F6627B00DA11D661F829F2227B00D24
:10260000A11D621F739FB00DA11D621F839FA00DAE
:10261000611D221F749F3327A00D611D231F849FFE
:10262000600D211D822F762F6A2F11249F57504055
:102630009AF0F1F088234AF0EE0FFF1FBB1F661FD0
:10264000771F881F91505040A9F79E3F510580F099
:102650000C943F130C948A135F3FE4F3983ED4F339
:10266000869577956795B795F795E7959F5FC1F73D
:10267000FE2B880F911D9695879597F9089597F9E8
:102680009F6780E870E060E008959FEF80EC089518
:1026900000240A9416161706180609060895002441
:1026A0000A9412161306140605060895092E0394BB
:1026B000000C11F4882352F0BB0F40F4BF2B11F42F
:1026C00060FF04C06F5F7F4F8F4F9F4F089557FD8E
:1026D0009058440F551F59F05F3F71F04795880F90
:1026E00097FB991F61F09F3F79F087950895121627
:1026F00013061406551FF2CF4695F1DF08C01616D3
:1027000017061806991FF1CF869571056105089483
:102710000895E894BB2766277727CB0197F908959A
:10272000052E97FB1EF400940E94A71357FD07D0B7
:102730000E94F91307FC03D04EF40C94A713509594
:102740004095309521953F4F4F4F5F4F089590959D
:102750008095709561957F4F8F4F9F4F08950E9490
:102760001B14A59F900DB49F900DA49F800D911DEB
:1027700011240895B7FF0C94AF130E94AF13821B6E
:10278000930B08952F923F924F925F926F927F9298
:102790008F929F92AF92BF92CF92DF92EF92FF9271
:1027A0000F931F93CF93DF93CDB7DEB7CA1BDB0B1D
:1027B0000FB6F894DEBF0FBECDBF09942A883988C2
:1027C00048885F846E847D848C849B84AA84B984C9
:1027D000C884DF80EE80FD800C811B81AA81B981D5
:1027E000CE0FD11D0FB6F894DEBF0FBECDBFED01E9
:1027F0000895A1E21A2EAA1BBB1BFD010DC0AA1F42
:10280000BB1FEE1FFF1FA217B307E407F50720F059
:10281000A21BB30BE40BF50B661F771F881F991FD4
:102820001A9469F760957095809590959B01AC011D
:10283000BD01CF010895A29FB001B39FC001A39F26
:10284000700D811D1124911DB29F700D811D1124E9
:10285000911D08955058BB27AA270E9442140C943A
:1028600056130E94481338F00E944F1320F039F499
:102870009F3F19F426F40C9445130EF4E095E7FB02
:102880000C943F13E92F0E94671358F3BA1762079D
:1028900073078407950720F079F4A6F50C94891343
:1028A0000EF4E0950B2EBA2FA02D0B01B90190016B
:1028B0000C01CA01A0011124FF27591B99F0593FAF
:1028C00050F4503E68F11A16F040A22F232F342FF7
:1028D0004427585FF3CF469537952795A795F04045
:1028E0005395C9F77EF41F16BA0B620B730B840B5A
:1028F000BAF09150A1F0FF0FBB1F661F771F881F12
:10290000C2F70EC0BA0F621F731F841F48F4879569
:1029100077956795B795F7959E3F08F0B0CF93955B
:10292000880F08F09927EE0F9795879508950E94D4
:10293000AB140C9456130E944F1358F00E94481386
:1029400040F029F45F3F29F00C943F1351110C948F
:102950008A130C9445130E94671368F39923B1F30B
:10296000552391F3951B550BBB27AA2762177307B5
:10297000840738F09F5F5F4F220F331F441FAA1F49
:10298000A9F335D00E2E3AF0E0E832D09150504005
:10299000E695001CCAF72BD0FE2F29D0660F771FB3
:1029A000881FBB1F261737074807AB07B0E809F099
:1029B000BB0B802DBF01FF2793585F4F3AF09E3F1E
:1029C000510578F00C943F130C948A135F3FE4F3A5
:1029D000983ED4F3869577956795B795F7959F5F61
:1029E000C9F7880F911D9695879597F90895E1E0AD
:1029F000660F771F881FBB1F621773078407BA070C
:102A000020F0621B730B840BBA0BEE1F88F7E09566
:102A100008950E9410156894B1110C948A130895BA
:102A20000E946F1388F09F5798F0B92F9927B751DC
:102A3000B0F0E1F0660F771F881F991F1AF0BA9562
:102A4000C9F714C0B13091F00E948913B1E0089524
:102A50000C948913672F782F8827B85F39F0B93F16
:102A6000CCF3869577956795B395D9F73EF4909515
:102A70008095709561957F4F8F4F9F4F08950E946D
:102A8000AE1208F48FEF08950E94AE12880B990BD6
:102A90000895DB018F939F930E94AF13BF91AF9175
:102AA000A29F800D911DA39F900DB29F900D1124A8
:102AB0000895991B79E004C0991F961708F0961B9A
:102AC000881F7A95C9F78095089597FB072E16F40D
:102AD000009407D077FD09D00E94861507FC05D029
:102AE0003EF4909581959F4F0895709561957F4F25
:102AF0000895EE0FFF1F0590F491E02D09940E94B8
:102B00001B14B7FF0895821B930B0895AA1BBB1BD0
:102B100051E107C0AA1FBB1FA617B70710F0A61BDD
:102B2000B70B881F991F5A95A9F780959095BC01FE
:102B3000CD0108950F931F93CF93DF9382309105BA
:102B400010F482E090E0E091EA03F091EB0330E0D2
:102B500020E0B0E0A0E0309799F42115310509F4A8
:102B60004AC0281B390B24303105D8F58A819B8156
:102B70006115710589F1FB0193838283FE0111C008
:102B8000408151810281138148175907E0F04817AD
:102B9000590799F4109761F012960C9312971396B7
:102BA0001C933296CF01DF91CF911F910F91089521
:102BB0000093EA031093EB03F4CF2115310551F094
:102BC0004217530738F0A901DB019A01BD01DF016B
:102BD000F801C1CFEF01F9CF9093EB038093EA03A3
:102BE000CDCFFE01E20FF31F819391932250310963
:102BF00039832883D7CF2091E8033091E903232B31
:102C000041F420910301309104013093E9032093B2
:102C1000E80320910101309102012115310541F4B1
:102C20002DB73EB74091050150910601241B350B8D
:102C3000E091E803F091E903E217F307A0F42E1BFB
:102C40003F0B2817390778F0AC014E5F5F4F241710
:102C5000350748F04E0F5F1F5093E9034093E80398
:102C6000819391939FCFF0E0E0E09CCFCF93DF93EF
:102C70000097E9F0FC01329713821282A091EA03D7
:102C8000B091EB03ED0130E020E01097A1F420813A
:102C90003181820F931F2091E8033091E9032817B7
:102CA000390709F061C0F093E903E093E803DF918D
:102CB000CF910895EA01CE17DF07E8F54A815B81DD
:102CC0009E0141155105B1F7E901FB83EA83499162
:102CD0005991C40FD51FEC17FD0761F480819181D4
:102CE0000296840F951FE9019983888382819381DD
:102CF0009B838A83F0E0E0E012968D919C9113977C
:102D00000097B9F52D913C911197CD010296820F54
:102D1000931F2091E8033091E9032817390739F60A
:102D2000309751F51092EB031092EA03B093E90348
:102D3000A093E803BCCFD383C28340815181840F29
:102D4000951FC817D90761F44E5F5F4F888199813D
:102D5000480F591F518340838A819B8193838283CB
:102D60002115310509F0B0CFF093EB03E093EA03AE
:102D70009ECFFD01DC01C0CF13821282D7CFB0E01D
:102D8000A0E0E5ECF6E10C94C4138C01009751F43B
:102D9000CB010E949A158C01C801CDB7DEB7E0E1E6
:102DA0000C94E013FC01E60FF71F9C01225031093F
:102DB000E217F30708F49DC0D901CD91DC9111977A
:102DC000C617D70798F0C530D10530F3CE01049768
:102DD0008617970708F3C61BD70B2297C193D19389
:102DE0006D937C93CF010E943616D6CF5B01AC1A4F
:102DF000BD0A4C018C0E9D1EA091EA03B091EB031D
:102E0000512C412CF12CE12C109731F58091E803E5
:102E10009091E9038815990509F05CC0461657069C
:102E200008F058C08091010190910201009741F48F
:102E30008DB79EB74091050150910601841B950BFB
:102E4000E817F90708F055C0F093E903E093E803A9
:102E5000F90171836083A0CF8D919C911197129697
:102E60006C90129713967C901397A815B90559F595
:102E70006C0142E0C40ED11CCA14DB0420F1AC0189
:102E80004A195B09DA011296159780F06282738203
:102E900051834083D9016D937C93E114F10471F067
:102EA000D7011396FC93EE93129776CF22968C0F50
:102EB0009D1FF90191838083F301EFCFF093EB0322
:102EC000E093EA0369CF4816590608F42C017D0106
:102ED000D3019ACFCB010E949A157C01009749F04B
:102EE000AE01B8010E947C17C8010E943616870106
:102EF00053CF10E000E050CFFB01DC0102C0019095
:102F00000D9241505040D8F70895FB01DC0101902B
:102F10000D920020E1F7089510E0C3E6D0E004C070
:102F2000FE010E9479152196C436D107C9F7F8949D
:022F3000FFCFD1
:102F3200FF0000EC038000000000006702C701F4FC
:102F420001B402250203021702000000001105C7A6
:102F520001A70510056D058505F80400000000FCB9
:102F620006C701A705A6056E616E00696E66006F51
:102F72007666004750524D43004750474741004F45
:102F82006E204649524500204E4F2053414645008F
:102F920053656E64696E6720534D532E2E2E004189
:102FA200542B434D47463D310D0041542B434D4771
:102FB200533D222B323531393238353833363335B9
:102FC200220D0046495245204F4343555245442164
:102FD2000D0041542B434D47533D222B323531399D
:102FE2003238353833363336220D0041542B434DB7
:102FF20047533D222B323531393238353833373366
:1030020035220D0046495245204F4343555245440F
:103012002120696E0D004C61746974756465203DF0
:103022002000204C6F6E676974756465203D200036
:103032000D0A004E4F204649524500414C4C205348
:0430420041464500BE
:00000001FF
